:020000040000FA
:020000000C28CA
:080008002608A7004D20592035
:100010000B117F3081000900AA208B178B16A801D5
:10002000A901A601AB010030AC000330AD000519F9
:1000300017282B18362026082C02031828202D08F4
:10004000260203182F2005183B2885184428172856
:1000500088148815902088118810902008000815B1
:10006000881590208811081190200800881590208C
:1000700088112B100800851C3B2805183D28851881
:100080003F28A60A2B141728051C44288518462843
:1000900005184828A6032B141728A801A9010A301F
:1000A0002702031C5628A700A80A4F282708A900E2
:1000B000080028086620860007149D2007102908DC
:1000C0006620860087149D20871008008601AA00FC
:1000D0002A08003A03193F342A08013A0319063462
:1000E0002A08023A03195B342A08033A03194F34E9
:1000F0002A08043A031966342A08053A03196D34AC
:100100002A08063A03197D342A08073A03190734E6
:100110002A08083A03197F342A08093A03196F3468
:100120002930A200A730A1001730A000A00B96280C
:10013000A10B9428A20B922808000130A5001730CB
:10014000A4004730A300A30BA328A40BA128A50B50
:100150009F2808008501860187018801890183168F
:1001600006309F0007309C003F308500003086003D
:100170000030870088018901D73081008312080090
:02400E00313F40
:00000001FF
